{
  "contractName": "MoneyMailer",
  "abi": [
    {
      "inputs": [],
      "stateMutability": "payable",
      "type": "constructor"
    },
    {
      "anonymous": false,
      "inputs": [
        {
          "indexed": true,
          "internalType": "address",
          "name": "accountAddress",
          "type": "address"
        },
        {
          "indexed": false,
          "internalType": "uint256",
          "name": "amount",
          "type": "uint256"
        }
      ],
      "name": "LogDepositMade",
      "type": "event"
    },
    {
      "inputs": [],
      "name": "owner",
      "outputs": [
        {
          "internalType": "address",
          "name": "",
          "type": "address"
        }
      ],
      "stateMutability": "view",
      "type": "function"
    },
    {
      "inputs": [],
      "name": "enroll",
      "outputs": [
        {
          "internalType": "uint256",
          "name": "",
          "type": "uint256"
        }
      ],
      "stateMutability": "nonpayable",
      "type": "function"
    },
    {
      "inputs": [],
      "name": "deposit",
      "outputs": [
        {
          "internalType": "uint256",
          "name": "",
          "type": "uint256"
        }
      ],
      "stateMutability": "payable",
      "type": "function"
    },
    {
      "inputs": [
        {
          "internalType": "uint256",
          "name": "withdrawAmount",
          "type": "uint256"
        }
      ],
      "name": "withdraw",
      "outputs": [
        {
          "internalType": "uint256",
          "name": "remainingBal",
          "type": "uint256"
        }
      ],
      "stateMutability": "nonpayable",
      "type": "function"
    }
  ],
  "bytecode": "0x60806040526000341461007a576040517f08c379a00000000000000000000000000000000000000000000000000000000081526004018080602001828103825260208152602001807f3020657468657220696e697469616c2066756e64696e6720726571756972656481525060200191505060405180910390fd5b33600260006101000a81548173ffffffffffffffffffffffffffffffffffffffff021916908373ffffffffffffffffffffffffffffffffffffffff16021790555060008060006101000a81548160ff021916908360ff160217905550610415806100e56000396000f3fe60806040526004361061003f5760003560e01c80632e1a7d4d146100445780638da5cb5b14610093578063d0e30db0146100d4578063e65f2a7e146100f2575b600080fd5b34801561005057600080fd5b5061007d6004803603602081101561006757600080fd5b810190808035906020019092919050505061011d565b6040518082815260200191505060405180910390f35b34801561009f57600080fd5b506100a86101fa565b604051808273ffffffffffffffffffffffffffffffffffffffff16815260200191505060405180910390f35b6100dc610220565b6040518082815260200191505060405180910390f35b3480156100fe57600080fd5b50610107610302565b6040518082815260200191505060405180910390f35b600081600160003373ffffffffffffffffffffffffffffffffffffffff1673ffffffffffffffffffffffffffffffffffffffff168152602001908152602001600020600082825403925050819055503373ffffffffffffffffffffffffffffffffffffffff166108fc839081150290604051600060405180830381858888f193505050501580156101b2573d6000803e3d6000fd5b50600160003373ffffffffffffffffffffffffffffffffffffffff1673ffffffffffffffffffffffffffffffffffffffff168152602001908152602001600020549050919050565b600260009054906101000a900473ffffffffffffffffffffffffffffffffffffffff1681565b600034600160003373ffffffffffffffffffffffffffffffffffffffff1673ffffffffffffffffffffffffffffffffffffffff168152602001908152602001600020600082825401925050819055503373ffffffffffffffffffffffffffffffffffffffff167fa8126f7572bb1fdeae5b5aa9ec126438b91f658a07873f009d041ae690f3a193346040518082815260200191505060405180910390a2600160003373ffffffffffffffffffffffffffffffffffffffff1673ffffffffffffffffffffffffffffffffffffffff16815260200190815260200160002054905090565b6000606460008054906101000a900460ff1660ff16101561039a5760008081819054906101000a900460ff168092919060010191906101000a81548160ff021916908360ff1602179055505066b1a2bc2ec50000600160003373ffffffffffffffffffffffffffffffffffffffff1673ffffffffffffffffffffffffffffffffffffffff168152602001908152602001600020819055505b600160003373ffffffffffffffffffffffffffffffffffffffff1673ffffffffffffffffffffffffffffffffffffffff1681526020019081526020016000205490509056fea2646970667358221220e7efce95713f6575bb3521d2ac2b7e42eb883d2527b4ce620c06cf61076bdc2a64736f6c634300060c0033",
  "immutableReferences": {},
  "source": "// SPDX-License-Identifier: MIT\n\npragma solidity ^0.6.2;\n\ncontract MoneyMailer {\n    uint8 private clientCount;\n    mapping(address => uint256) private balances;\n    address public owner;\n\n    // Log the event about a deposit being made by an address and its amount\n    event LogDepositMade(address indexed accountAddress, uint256 amount);\n\n    // Constructor is \"payable\" so it can receive the initial funding of 30,\n    // required to reward the first 3 clients\n    constructor() public payable {\n        require(msg.value == 0 ether, \"0 ether initial funding required\");\n        /* Set the owner to the creator of this contract */\n        owner = msg.sender;\n        clientCount = 0;\n    }\n\n    /// @notice Enroll a customer with the bank,\n    /// giving the first 100 of them .5 ether as reward\n    /// @return The balance of the user after enrolling\n    function enroll() public returns (uint256) {\n        if (clientCount < 100) {\n            clientCount++;\n            balances[msg.sender] = .05 ether;\n        }\n        return balances[msg.sender];\n    }\n\n    /// @notice Deposit ether into bank, requires method is \"payable\"\n    /// @return The balance of the user after the deposit is made\n    function deposit() public payable returns (uint256) {\n        balances[msg.sender] += msg.value;\n        emit LogDepositMade(msg.sender, msg.value);\n        return balances[msg.sender];\n    }\n\n    function withdraw(uint256 withdrawAmount)\n        public\n        returns (uint256 remainingBal)\n    {\n        balances[msg.sender] -= withdrawAmount;\n\n        // this automatically throws on a failure, which means the updated balance is reverted\n        msg.sender.transfer(withdrawAmount);\n\n        return balances[msg.sender];\n    }\n}\n",
  "sourcePath": "C:\\Users\\daote\\OneDrive\\Desktop\\Dapp Projects\\crypto-pizza-master\\CryptoPizza\\contracts\\MoneyMailer.sol",
  "compiler": {
    "name": "solc",
    "version": "0.6.12+commit.27d51765.Emscripten.clang"
  },
  "schemaVersion": "3.3.2",
  "updatedAt": "2021-01-02T07:45:14.123Z",
  "devdoc": {
    "kind": "dev",
    "methods": {
      "deposit()": {
        "returns": {
          "_0": "The balance of the user after the deposit is made"
        }
      },
      "enroll()": {
        "returns": {
          "_0": "The balance of the user after enrolling"
        }
      }
    },
    "version": 1
  },
  "userdoc": {
    "kind": "user",
    "methods": {
      "deposit()": {
        "notice": "Deposit ether into bank, requires method is \"payable\""
      },
      "enroll()": {
        "notice": "Enroll a customer with the bank, giving the first 100 of them .5 ether as reward"
      }
    },
    "version": 1
  }
}